S0030000FC
S113B60086FFB7103DCEF0008EB5EECC6020A73C8F
S113B610E700CC1301A739F7F800CC000CA72BA73F
S113B6202CE72DA60A4424037EB80018CEB7F4BD37
S113B630B7B88638A7098652A72818CEB5F518A634
S113B6408918A7001808188CB5FB26F2CCF100FD68
S113B650B5FBBDB78886C8BDB78B4A26FA18CEB7E6
S113B660C48D2C5A266A18CEB7D0BDB68F5A27057A
S113B670BDB70B2003BDB6DBBDB73E7EB76E510030
S113B68000000001183C18CEB7DCBDB68F1838BDD9
S113B690B7881D0820188CB7C42706BDB78B5C2655
S113B6A0FA860618E600BDB78D18084A26F5BDB718
S113B6B08BBDB78BC58026F9C10039860418CEB579
S113B6C0F1BDB78B18E70018084A26F539BDB79FB6
S113B6D017BDB79F18CEB7FB7EB79A8DDEFCB5F3C6
S113B6E01A8301AA26E718CEB7EEBDB68426F7184A
S113B6F0CEB7E2BDB68F26D88DC1B6B5F18440264B
S113B70004860220028603B7B5F03918CEB7E8BD27
S113B710B684C102241018CEB7E8BDB68426F786D5
S113B72004B7B5F0200E18CEB7CABDB68F26F7867B
S113B73001B7B5F018CEB7D6BDB68F2693398D486C
S113B74018CEB5F5BDB68F2687BDB78BC1FE26F9D9
S113B75018CEB5FB4FBDB78B18E700BDB78B18E704
S113B76001180818084A26ED8D1E1D08203918CE28
S113B770B7F7BDB7B818CEF10018EC001A836811FA
S113B7802614B6B5F0186E021C0820C6FFE72A1F5F
S113B7902980FCE62A3918CEB7FDBDB7B820FE369D
S113B7A0444444448D0332840F810A2B028B078B5B
S113B7B0301F2E80FCA72F3918A60027068DF218FB
S113B7C00820F53940000000009541000000000108
S113B7D048000001AA875000000200017700000021
S113B7E000017A00000000016900000000016940C6
S113B7F000000001423A0053313A0045004E00A0D7
S9030000FC
