S0030000FC
S113FC0086FFB7103DCEF000A6248A03A724868081
S113FC10A7001C26808613A7398601B7F800860042
S113FC20A72B8600A72C860CA72D8EF0FFC6148662
S113FC307E18CEFC72183C365A26FA8EF0B87EFD39
S113FC40601F2E20FCA62F817F27F63981612506AF
S113FC50817A220284DF398DE88DF1810D27061F18
S113FC602E80FCA72F3918A60027068DF21808202D
S113FC70F53918CEFE96BDFC6620FE18CE0000189D
S113FC80FFF04018A600431618A70018E100260E3E
S113FC904318A7001808188CEFFF270220E518FF67
S113FCA0F040398DB281302B4381392F0A81412BA9
S113FCB03B81462E378007398D9D815326FA8D97D7
S113FCC081392728813126F07FF0438D388002B7AF
S113FCD0F0448D1B8D2F7AF044270718A7001808CD
S113FCE020F27CF04327D1863FBDFC5F7EFDA38DCF
S113FCF014BBF04220028D0DB7F0458D08B7F046D5
S113FD0018FEF045398D9C48484848168D95840F57
S113FD101B16FBF043F7F043398DDB8D3E8D3A8D96
S113FD20E4180918A70018A10026BC20768DC78DF9
S113FD302A8DD218A700206B44444444840F8B308E
S113FD40813922037EFC5F8B077EFC5F18A6008D41
S113FD50E718A6008DE61808398DF186207EFC5F31
S113FD60BDFC7B18CEFDE5BDFC6618CEFEC3BDFC14
S113FD706618CEF040BDFD4CBDFD4C18CEFED8BD7E
S113FD80FC6618CEFE3CBDFC664FB7F0422014184A
S113FD90CEFE71BDFC66183018FFF0C2C60B8DB9DB
S113FDA05A26FB8EF0B8860DBDFC5F860ABDFC5F4B
S113FDB018CEFE6ABDFC66BDFC5716BDFD5BC1587E
S113FDC026059D007EFD60C14C26037EFCB8C14D16
S113FDD026037EFD19C15726037EFD2DC15027AF92
S113FDE0C14726BF3B0D0A2A2A2A204B6275672089
S113FDF04D6F6E69746F7220666F72204D696E6903
S113FE0031312F4D3845202A2A2A0D0A52414D20DE
S113FE107265736964656E74206669726D77617268
S113FE206520312E3035206275696C74206F6E2028
S113FE3031312F342F323032340D0A0047286F29E4
S113FE402C4C286F6164292C5028726F63292C4D27
S113FE50286F64292C572872697465292C582865E1
S113FE6063757465293F3A0D0A004B4255472D3E90
S113FE70000D0A43432042202041202058482058A6
S113FE804C20594820594C20504820504C2053486D
S113FE9020534C0D0A000D0A457272202D20766500
S113FEA063746F72207461626C6520656E7472791C
S113FEB0206E6F7420696E697469616C697A656417
S113FEC00D0A0052414D2074657374207061737380
S10FFED0656420746F2024002E0D0A00CD
S113FFD6F0C4F0C7F0CAF0CDF0D0F0D3F0D6F0D923
S113FFE6F0DCF0DFF0E2F0E5F0E8F0EBF0EEF0F153
S10DFFF6F0F4F0F7F0FAF0FDFC005F
S9030000FC
